{
  "_format": "hh-sol-artifact-1",
  "contractName": "NFTMarket",
  "sourceName": "contracts/NFTMarket.sol",
  "abi": [
    {
      "inputs": [],
      "stateMutability": "nonpayable",
      "type": "constructor"
    },
    {
      "anonymous": false,
      "inputs": [
        {
          "indexed": true,
          "internalType": "uint256",
          "name": "itemId",
          "type": "uint256"
        },
        {
          "indexed": true,
          "internalType": "address",
          "name": "nftContract",
          "type": "address"
        },
        {
          "indexed": true,
          "internalType": "uint256",
          "name": "tokenId",
          "type": "uint256"
        },
        {
          "indexed": false,
          "internalType": "address",
          "name": "seller",
          "type": "address"
        },
        {
          "indexed": false,
          "internalType": "address",
          "name": "owner",
          "type": "address"
        },
        {
          "indexed": false,
          "internalType": "uint256",
          "name": "price",
          "type": "uint256"
        },
        {
          "indexed": false,
          "internalType": "bool",
          "name": "sold",
          "type": "bool"
        }
      ],
      "name": "MarketItemCreated",
      "type": "event"
    },
    {
      "inputs": [
        {
          "internalType": "address",
          "name": "nftContract",
          "type": "address"
        },
        {
          "internalType": "uint256",
          "name": "tokenId",
          "type": "uint256"
        },
        {
          "internalType": "uint256",
          "name": "price",
          "type": "uint256"
        }
      ],
      "name": "createMarketItem",
      "outputs": [],
      "stateMutability": "payable",
      "type": "function"
    },
    {
      "inputs": [
        {
          "internalType": "address",
          "name": "nftContract",
          "type": "address"
        },
        {
          "internalType": "uint256",
          "name": "itemId",
          "type": "uint256"
        }
      ],
      "name": "createMarketSale",
      "outputs": [],
      "stateMutability": "payable",
      "type": "function"
    },
    {
      "inputs": [],
      "name": "fetchItemsCreated",
      "outputs": [
        {
          "components": [
            {
              "internalType": "uint256",
              "name": "itemId",
              "type": "uint256"
            },
            {
              "internalType": "address",
              "name": "nftContract",
              "type": "address"
            },
            {
              "internalType": "uint256",
              "name": "tokenId",
              "type": "uint256"
            },
            {
              "internalType": "address payable",
              "name": "seller",
              "type": "address"
            },
            {
              "internalType": "address payable",
              "name": "owner",
              "type": "address"
            },
            {
              "internalType": "uint256",
              "name": "price",
              "type": "uint256"
            },
            {
              "internalType": "bool",
              "name": "sold",
              "type": "bool"
            }
          ],
          "internalType": "struct NFTMarket.MarketItem[]",
          "name": "",
          "type": "tuple[]"
        }
      ],
      "stateMutability": "view",
      "type": "function"
    },
    {
      "inputs": [],
      "name": "fetchMarketItems",
      "outputs": [
        {
          "components": [
            {
              "internalType": "uint256",
              "name": "itemId",
              "type": "uint256"
            },
            {
              "internalType": "address",
              "name": "nftContract",
              "type": "address"
            },
            {
              "internalType": "uint256",
              "name": "tokenId",
              "type": "uint256"
            },
            {
              "internalType": "address payable",
              "name": "seller",
              "type": "address"
            },
            {
              "internalType": "address payable",
              "name": "owner",
              "type": "address"
            },
            {
              "internalType": "uint256",
              "name": "price",
              "type": "uint256"
            },
            {
              "internalType": "bool",
              "name": "sold",
              "type": "bool"
            }
          ],
          "internalType": "struct NFTMarket.MarketItem[]",
          "name": "",
          "type": "tuple[]"
        }
      ],
      "stateMutability": "view",
      "type": "function"
    },
    {
      "inputs": [],
      "name": "fetchMyNFTs",
      "outputs": [
        {
          "components": [
            {
              "internalType": "uint256",
              "name": "itemId",
              "type": "uint256"
            },
            {
              "internalType": "address",
              "name": "nftContract",
              "type": "address"
            },
            {
              "internalType": "uint256",
              "name": "tokenId",
              "type": "uint256"
            },
            {
              "internalType": "address payable",
              "name": "seller",
              "type": "address"
            },
            {
              "internalType": "address payable",
              "name": "owner",
              "type": "address"
            },
            {
              "internalType": "uint256",
              "name": "price",
              "type": "uint256"
            },
            {
              "internalType": "bool",
              "name": "sold",
              "type": "bool"
            }
          ],
          "internalType": "struct NFTMarket.MarketItem[]",
          "name": "",
          "type": "tuple[]"
        }
      ],
      "stateMutability": "view",
      "type": "function"
    },
    {
      "inputs": [],
      "name": "getListingPrice",
      "outputs": [
        {
          "internalType": "uint256",
          "name": "",
          "type": "uint256"
        }
      ],
      "stateMutability": "view",
      "type": "function"
    }
  ],
  "bytecode": "0x6080604052655af3107a4000600455600160055534801561001f57600080fd5b50600160008190555033600360006101000a81548173ffffffffffffffffffffffffffffffffffffffff021916908373ffffffffffffffffffffffffffffffffffffffff160217905550611952806100786000396000f3fe6080604052600436106100555760003560e01c80630f08efe01461005a57806312e8558514610085578063202e3740146100b057806358eb2df5146100db578063c23b139e146100f7578063f064c32e14610113575b600080fd5b34801561006657600080fd5b5061006f61013e565b60405161007c91906115c1565b60405180910390f35b34801561009157600080fd5b5061009a61046a565b6040516100a79190611663565b60405180910390f35b3480156100bc57600080fd5b506100c5610474565b6040516100d291906115c1565b60405180910390f35b6100f560048036038101906100f091906112fd565b610824565b005b610111600480360381019061010c91906112c1565b610b89565b005b34801561011f57600080fd5b50610128610e42565b60405161013591906115c1565b60405180910390f35b6060600061014c60016111f2565b9050600061015a60026111f2565b61016460016111f2565b61016e919061171e565b90506000808267ffffffffffffffff8111156101b3577f4e487b7100000000000000000000000000000000000000000000000000000000600052604160045260246000fd5b6040519080825280602002602001820160405280156101ec57816020015b6101d9611216565b8152602001906001900390816101d15790505b50905060005b8481101561045f57600073ffffffffffffffffffffffffffffffffffffffff166006600060018461022391906116c8565b815260200190815260200160002060040160009054906101000a900473ffffffffffffffffffffffffffffffffffffffff1673ffffffffffffffffffffffffffffffffffffffff16141561044c5760006006600060018461028491906116c8565b81526020019081526020016000206000015490506000600660008381526020019081526020016000209050806040518060e0016040529081600082015481526020016001820160009054906101000a900473ffffffffffffffffffffffffffffffffffffffff1673ffffffffffffffffffffffffffffffffffffffff1673ffffffffffffffffffffffffffffffffffffffff168152602001600282015481526020016003820160009054906101000a900473ffffffffffffffffffffffffffffffffffffffff1673ffffffffffffffffffffffffffffffffffffffff1673ffffffffffffffffffffffffffffffffffffffff1681526020016004820160009054906101000a900473ffffffffffffffffffffffffffffffffffffffff1673ffffffffffffffffffffffffffffffffffffffff1673ffffffffffffffffffffffffffffffffffffffff168152602001600582015481526020016006820160009054906101000a900460ff16151515158152505084868151811061042f577f4e487b7100000000000000000000000000000000000000000000000000000000600052603260045260246000fd5b602002602001018190525060018561044791906116c8565b945050505b8080610457906117ac565b9150506101f2565b508094505050505090565b6000600454905090565b6060600061048260016111f2565b905060008060005b8381101561052b573373ffffffffffffffffffffffffffffffffffffffff16600660006001846104ba91906116c8565b815260200190815260200160002060040160009054906101000a900473ffffffffffffffffffffffffffffffffffffffff1673ffffffffffffffffffffffffffffffffffffffff1614156105185760018361051591906116c8565b92505b8080610523906117ac565b91505061048a565b5060008267ffffffffffffffff81111561056e577f4e487b7100000000000000000000000000000000000000000000000000000000600052604160045260246000fd5b6040519080825280602002602001820160405280156105a757816020015b610594611216565b81526020019060019003908161058c5790505b50905060005b84811015610819573373ffffffffffffffffffffffffffffffffffffffff16600660006001846105dd91906116c8565b815260200190815260200160002060040160009054906101000a900473ffffffffffffffffffffffffffffffffffffffff1673ffffffffffffffffffffffffffffffffffffffff1614156108065760006006600060018461063e91906116c8565b81526020019081526020016000206000015490506000600660008381526020019081526020016000209050806040518060e0016040529081600082015481526020016001820160009054906101000a900473ffffffffffffffffffffffffffffffffffffffff1673ffffffffffffffffffffffffffffffffffffffff1673ffffffffffffffffffffffffffffffffffffffff168152602001600282015481526020016003820160009054906101000a900473ffffffffffffffffffffffffffffffffffffffff1673ffffffffffffffffffffffffffffffffffffffff1673ffffffffffffffffffffffffffffffffffffffff1681526020016004820160009054906101000a900473ffffffffffffffffffffffffffffffffffffffff1673ffffffffffffffffffffffffffffffffffffffff1673ffffffffffffffffffffffffffffffffffffffff168152602001600582015481526020016006820160009054906101000a900460ff1615151515815250508486815181106107e9577f4e487b7100000000000000000000000000000000000000000000000000000000600052603260045260246000fd5b602002602001018190525060018561080191906116c8565b945050505b8080610811906117ac565b9150506105ad565b508094505050505090565b6002600054141561086a576040517f08c379a000000000000000000000000000000000000000000000000000000000815260040161086190611643565b60405180910390fd5b600260008190555060055481116108b6576040517f08c379a00000000000000000000000000000000000000000000000000000000081526004016108ad906115e3565b60405180910390fd5b60045434146108fa576040517f08c379a00000000000000000000000000000000000000000000000000000000081526004016108f190611623565b60405180910390fd5b6109046001611200565b600061091060016111f2565b90506040518060e001604052808281526020018573ffffffffffffffffffffffffffffffffffffffff1681526020018481526020013373ffffffffffffffffffffffffffffffffffffffff168152602001600073ffffffffffffffffffffffffffffffffffffffff16815260200183815260200160001515815250600660008381526020019081526020016000206000820151816000015560208201518160010160006101000a81548173ffffffffffffffffffffffffffffffffffffffff021916908373ffffffffffffffffffffffffffffffffffffffff1602179055506040820151816002015560608201518160030160006101000a81548173ffffffffffffffffffffffffffffffffffffffff021916908373ffffffffffffffffffffffffffffffffffffffff16021790555060808201518160040160006101000a81548173ffffffffffffffffffffffffffffffffffffffff021916908373ffffffffffffffffffffffffffffffffffffffff16021790555060a0820151816005015560c08201518160060160006101000a81548160ff0219169083151502179055509050508373ffffffffffffffffffffffffffffffffffffffff166323b872dd3330866040518463ffffffff1660e01b8152600401610af193929190611545565b600060405180830381600087803b158015610b0b57600080fd5b505af1158015610b1f573d6000803e3d6000fd5b50505050828473ffffffffffffffffffffffffffffffffffffffff16827f045dfa01dcba2b36aba1d3dc4a874f4b0c5d2fbeb8d2c4b34a7d88c8d8f929d1336000876000604051610b73949392919061157c565b60405180910390a4506001600081905550505050565b60026000541415610bcf576040517f08c379a0000000000000000000000000000000000000000000000000000000008152600401610bc690611643565b60405180910390fd5b6002600081905550600060066000838152602001908152602001600020600501549050600060066000848152602001908152602001600020600201549050813414610c4f576040517f08c379a0000000000000000000000000000000000000000000000000000000008152600401610c4690611603565b60405180910390fd5b6006600084815260200190815260200160002060030160009054906101000a900473ffffffffffffffffffffffffffffffffffffffff1673ffffffffffffffffffffffffffffffffffffffff166108fc349081150290604051600060405180830381858888f19350505050158015610ccb573d6000803e3d6000fd5b508373ffffffffffffffffffffffffffffffffffffffff166323b872dd3033846040518463ffffffff1660e01b8152600401610d0993929190611545565b600060405180830381600087803b158015610d2357600080fd5b505af1158015610d37573d6000803e3d6000fd5b50505050336006600085815260200190815260200160002060040160006101000a81548173ffffffffffffffffffffffffffffffffffffffff021916908373ffffffffffffffffffffffffffffffffffffffff16021790555060016006600085815260200190815260200160002060060160006101000a81548160ff021916908315150217905550610dc96002611200565b600360009054906101000a900473ffffffffffffffffffffffffffffffffffffffff1673ffffffffffffffffffffffffffffffffffffffff166108fc6004549081150290604051600060405180830381858888f19350505050158015610e33573d6000803e3d6000fd5b50505060016000819055505050565b60606000610e5060016111f2565b905060008060005b83811015610ef9573373ffffffffffffffffffffffffffffffffffffffff1660066000600184610e8891906116c8565b815260200190815260200160002060030160009054906101000a900473ffffffffffffffffffffffffffffffffffffffff1673ffffffffffffffffffffffffffffffffffffffff161415610ee657600183610ee391906116c8565b92505b8080610ef1906117ac565b915050610e58565b5060008267ffffffffffffffff811115610f3c577f4e487b7100000000000000000000000000000000000000000000000000000000600052604160045260246000fd5b604051908082528060200260200182016040528015610f7557816020015b610f62611216565b815260200190600190039081610f5a5790505b50905060005b848110156111e7573373ffffffffffffffffffffffffffffffffffffffff1660066000600184610fab91906116c8565b815260200190815260200160002060030160009054906101000a900473ffffffffffffffffffffffffffffffffffffffff1673ffffffffffffffffffffffffffffffffffffffff1614156111d45760006006600060018461100c91906116c8565b81526020019081526020016000206000015490506000600660008381526020019081526020016000209050806040518060e0016040529081600082015481526020016001820160009054906101000a900473ffffffffffffffffffffffffffffffffffffffff1673ffffffffffffffffffffffffffffffffffffffff1673ffffffffffffffffffffffffffffffffffffffff168152602001600282015481526020016003820160009054906101000a900473ffffffffffffffffffffffffffffffffffffffff1673ffffffffffffffffffffffffffffffffffffffff1673ffffffffffffffffffffffffffffffffffffffff1681526020016004820160009054906101000a900473ffffffffffffffffffffffffffffffffffffffff1673ffffffffffffffffffffffffffffffffffffffff1673ffffffffffffffffffffffffffffffffffffffff168152602001600582015481526020016006820160009054906101000a900460ff1615151515815250508486815181106111b7577f4e487b7100000000000000000000000000000000000000000000000000000000600052603260045260246000fd5b60200260200101819052506001856111cf91906116c8565b945050505b80806111df906117ac565b915050610f7b565b508094505050505090565b600081600001549050919050565b6001816000016000828254019250508190555050565b6040518060e0016040528060008152602001600073ffffffffffffffffffffffffffffffffffffffff16815260200160008152602001600073ffffffffffffffffffffffffffffffffffffffff168152602001600073ffffffffffffffffffffffffffffffffffffffff168152602001600081526020016000151581525090565b6000813590506112a6816118ee565b92915050565b6000813590506112bb81611905565b92915050565b600080604083850312156112d457600080fd5b60006112e285828601611297565b92505060206112f3858286016112ac565b9150509250929050565b60008060006060848603121561131257600080fd5b600061132086828701611297565b9350506020611331868287016112ac565b9250506040611342868287016112ac565b9150509250925092565b60006113588383611499565b60e08301905092915050565b61136d81611764565b82525050565b61137c81611752565b82525050565b61138b81611752565b82525050565b600061139c8261168e565b6113a681856116a6565b93506113b18361167e565b8060005b838110156113e25781516113c9888261134c565b97506113d483611699565b9250506001810190506113b5565b5085935050505092915050565b6113f881611776565b82525050565b61140781611776565b82525050565b600061141a601c836116b7565b915061142582611824565b602082019050919050565b600061143d601e836116b7565b91506114488261184d565b602082019050919050565b60006114606024836116b7565b915061146b82611876565b604082019050919050565b6000611483601f836116b7565b915061148e826118c5565b602082019050919050565b60e0820160008201516114af6000850182611527565b5060208201516114c26020850182611373565b5060408201516114d56040850182611527565b5060608201516114e86060850182611364565b5060808201516114fb6080850182611364565b5060a082015161150e60a0850182611527565b5060c082015161152160c08501826113ef565b50505050565b611530816117a2565b82525050565b61153f816117a2565b82525050565b600060608201905061155a6000830186611382565b6115676020830185611382565b6115746040830184611536565b949350505050565b60006080820190506115916000830187611382565b61159e6020830186611382565b6115ab6040830185611536565b6115b860608301846113fe565b95945050505050565b600060208201905081810360008301526115db8184611391565b905092915050565b600060208201905081810360008301526115fc8161140d565b9050919050565b6000602082019050818103600083015261161c81611430565b9050919050565b6000602082019050818103600083015261163c81611453565b9050919050565b6000602082019050818103600083015261165c81611476565b9050919050565b60006020820190506116786000830184611536565b92915050565b6000819050602082019050919050565b600081519050919050565b6000602082019050919050565b600082825260208201905092915050565b600082825260208201905092915050565b60006116d3826117a2565b91506116de836117a2565b9250827fffffffffffffffffffffffffffffffffffffffffffffffffffffffffffffffff03821115611713576117126117f5565b5b828201905092915050565b6000611729826117a2565b9150611734836117a2565b925082821015611747576117466117f5565b5b828203905092915050565b600061175d82611782565b9050919050565b600061176f82611782565b9050919050565b60008115159050919050565b600073ffffffffffffffffffffffffffffffffffffffff82169050919050565b6000819050919050565b60006117b7826117a2565b91507fffffffffffffffffffffffffffffffffffffffffffffffffffffffffffffffff8214156117ea576117e96117f5565b5b600182019050919050565b7f4e487b7100000000000000000000000000000000000000000000000000000000600052601160045260246000fd5b7f7072696365206d757374206265206174206c6561737420312077656900000000600082015250565b7f506c65617365207375626d6974207468652061736b696e672070726963650000600082015250565b7f7072696365206d75737420626520657175616c20746f206c697374696e67207060008201527f7269636500000000000000000000000000000000000000000000000000000000602082015250565b7f5265656e7472616e637947756172643a207265656e7472616e742063616c6c00600082015250565b6118f781611752565b811461190257600080fd5b50565b61190e816117a2565b811461191957600080fd5b5056fea264697066735822122026d01b55013542aa30a4dfda03f0c12c3a600290ec214d865f897c7fc0fd9d2264736f6c63430008040033",
  "linkReferences": {},
  "deployedLinkReferences": {}
}